:100FCB0057616974696E672E2E2E00506C656173C4
:100FDB006520696E7075742070617373776F7264BE
:040FEB00210D0A00CA
:100EE90012106912107E12109212103ED2AFC299DE
:100EF900D288D2A87BFF7A0F79CBE4FDFF120F5578
:100F09007BFF7A0F79D6120F293001FD751D411229
:100F19000C62300002B2977F2C7E011210F180EF33
:041104004100420064
:100DC0000308173B1D0316173B28090D0000000000
:090DD0000000000000020B00000D
:101092005389F0438901758AD5758C97C28DD28C9C
:0310A200D2A922AE
:100D5C00120822FF75F00A1208002430F50DEF7509
:100D6C00F00A120800AFF0EF2430F50E750F2D903D
:100D7C00000112083BFF75F00A1208002430F51030
:100D8C00EF75F00A120800AFF0EF2430F511751270
:100D9C002D90000212083BFF75F00A120800243057
:100DAC00F513EF75F00A120800AFF0EF2430F514CC
:040DBC00E4F5152223
:100F7D007F011210A57BFF7A117904E4FDFF120F9A
:100F8D00557B007A007908120D5C7B007A00790D93
:070F9D00E4FD7F04020F5583
:100FA4007F011210A57BFF7A117906E4FDFF120F71
:100FB400557B007A007916120D5C7B007A00790D5E
:070FC400E4FD7F04020F555C
:03000B00020B35B0
:100B3500C0E0C0F0C083C082C0D075D000C000C086
:100B450001C002C003C004C005C006C007050CE50E
:100B55000C7002050B758AD5758C97D28CE50C64E3
:100B650064450B7020050AF50BF50CE50AB43C1538
:100B75000509750A0075093C0508750900E508B4FD
:100B85001803750800E508B5160CE509B51707E55E
:100B95000AB51802D200E50C640A450B7008E51D7C
:100BA500B44103120F7DE50C640A450B7008E51D81
:100BB500B44203120FA4D007D006D005D004D00349
:100BC500D002D001D000D0D0D082D083D0F0D0E0F8
:010BD50032ED
:0910FB00000000000000000022CA
:10107E007F381210A57F0C1210A57F061210A57FC7
:04108E00010210A5A6
:101054007580FFC2A6D2A5D2A7AF801210FBC2A78B
:04106400EF20E7F39F
:011068002265
:1010A500AE07121054C2A6C2A58E801210FBD2A79D
:0310B500C2A722AD
:1010B800AE07121054D2A6C2A58E801210FBD2A77A
:0310C800C2A7229A
:1010CB00ED7004AC078004EF2440FCEC4480FF027D
:0210DB0010A55E
:100F55008B778A7889791210CBAB77AA78A9791221
:100F6500082260130579E5797002057814F91208ED
:080F750022FF1210B880E222F5
:100E1B003132333435360057656C636F6D65207432
:100E2B006F20796F75210D0A00546865207061730E
:100E3B0073776F7264206973206572726F722120F1
:100E4B00506C6561736520696E70757420616761A4
:060E5B00696E210D0A0082
:100DD90020283F506C6561736520696E70757420B9
:100DE90070617373776F7264210000000000000066
:100DF9000000000000000000000000066801020376
:080E0900040506016700C101A8
:10106900438780759850438E04759C30438E0143A5
:051079008E10D2AC2234
:060EA7008B728A7389744E
:100EAD00E4FF7575867576A0E5761576AC757002DE
:100EBD0015754C60183098F0C298AB72AA73A9746E
:100ECD008F82758300E5991208680F80DBAB72AADB
:0C0EDD0073A9748F82758300E40208681A
:100F29008B778A788979C2ACAB77AA78A9791208C4
:100F39002260160579E5797002057814F9120822FC
:0C0F4900F5993099FDC29980DFD2AC22EE
:03002300020CE3E9
:100CE300C0E0C0F0C083C082C0D075D000C000C0D7
:0D0CF30001C002C003C004C005C006C00758
:100D00007571007E017B007A007921120EA7E567DC
:100D10007012781B7C0E7DFFFB7A007921120A5D30
:100D2000AE070567EE700B7BFF7A0E7922120F2952
:100D3000D201EE600C2001097BFF7A0E7934120F8C
:010D40002989
:100D4100D007D006D005D004D003D002D001D00006
:0B0D5100D0D0D082D083D0F0D0E032B0
:1010DD003F065B4F666D7D077F6F777C395E79715B
:060E1100011C00011B00A2
:10103E00538EBF53890F438910758B2B758DEBC261
:06104E008FD28ED2AB220E
:100A7A00E51BB4320C7F941210258E198F1AE4F5F7
:100A8A001BE4F5A0E51C14602814604D1460792459
:100A9A00036003020B34D290D291D292AE19AF1AEC
:100AAA007C007D0A12088A74DD2DF58274103C8060
:100ABA004EC290D291D292AE19AF1A7C007D6412C6
:100ACA00088A7E007F0ACFCDCFCECCCE12088A7498
:100ADA00DD2FF58274103E8026D290C291D292AE5A
:100AEA0019AF1A7C037DE812088A7E007F64CFCD95
:100AFA00CFCECCCE12088A74DD2FF58274103EF563
:100B0A0083E493F5A0051C22C290C291D292AE1939
:100B1A00AF1A7C037DE812088A74DD2FF5827410FF
:0B0B2A003EF583E493F5A0E4F51C22E7
:03001B00020E6171
:100E6100C0E0C0F0C083C082C0D075D000C000C057
:100E710001C002C003C004C005C006C007758B2BAA
:100E8100758DEB758000120A7A051BD007D006D04C
:100E910005D004D003D002D001D000D0D0D082D070
:060EA10083D0F0D0E03226
:030E1700011E00B9
:0410ED007FA07E86DC
:0A10F100EF1F70011E144E70F7226D
:100C620020B40EE51DB44109751D4230B4FD1210C9
:100C7200ED20B40EE51DB44209751D4130B4FD12DC
:100C820010ED20B515E51DB44210051EE51EB40495
:100C920003E4F51E30B5FD1210ED20B63BE51D64F0
:100CA200427035E51E24FE601314601C240270227B
:100CB2000516E516B4191BE4F51680160517E51797
:100CC200B43C0FE4F517800A0518E518B43C03E4B8
:100CD200F51830B6FD1210ED20B705300002C20043
:010CE20022EF
:100FEF00C296E4FEEFC4131313540124FF9294EF3F
:0B0FFF0025E0FFC296D2960EBE08E966
:01100A0022C3
:10100B00E4FFFEFDEF25E0FFEE33FED296C296A283
:09101B0093E43342070DBD0CEB18
:0110240022A9
:10102500C296C295120FEF7F06DFFED2960000C270
:0810350096000012100BD29589
:01103D002290
:03000000020BD61A
:0C0BD600787FE4F6D8FD758179020C1DD3
:10080000C2D530F707B2D563F0FF05F030E70CB280
:10081000D5F4048463F0FF05F080018430D502F440
:020820000422B0
:10082200BB010689828A83E0225002E722BBFE02D4
:09083200E32289828A83E4932207
:10083B00BB010CE58229F582E5833AF583E0225072
:10084B0006E92582F8E622BBFE06E92582F8E222BC
:0D085B00E58229F582E5833AF583E49322D6
:10086800F8BB010DE58229F582E5833AF583E8F0C6
:10087800225006E92582C8F622BBFE05E92582C872
:02088800F2225A
:10088A00BC000BBE0029EF8DF084FFADF022E4CC52
:10089A00F875F008EF2FFFEE33FEEC33FCEE9DEC1B
:1008AA00984005FCEE9DFE0FD5F0E9E4CEFD22ED61
:1008BA00F8F5F0EE8420D21CFEADF075F008EF2FAB
:1008CA00FFED33FD4007985006D5F0F222C398FD9C
:0508DA000FD5F0EA2239
:1008DF00E3F5F009E208B5F06D606B80F3E3F5F036
:1008EF0009E608B5F060605E80F387F009E608B5A9
:1008FF00F054605280F487F009E208B5F048604682
:10090F0080F488828C8387F009E0A3B5F0386036D5
:10091F0080F488828C8387F009E493A3B5F0276075
:10092F002580F388828C83E3F5F009E0A3B5F016F8
:10093F00601480F388828C83E3F5F009E493A3B508
:10094F00F004600280F2020A0A808580E7808E80C0
:10095F00D2803C8015806C807E809B80B5808B80A0
:10096F00A1804F8070803A020A1689828A83ECFA3E
:10097F00E493F5F0A3C8C582C8CCC583CCE493A398
:10098F00C8C582C8CCC583CCB5F070606E80E189D4
:10099F00828A83E493F5F0A3E208B5F05E605C8091
:1009AF00F289828A83E0F5F0A3E608B5F04D604B3B
:1009BF0080F389828A83E0F5F0A3E208B5F03C600A
:1009CF003A80F389828A83E493F5F0A3E608B5F0C1
:1009DF002A602880F2805389828A83ECFAE493F5A7
:1009EF00F0A3C8C582C8CCC583CCE0A3C8C582C854
:1009FF00CCC583CCB5F004600280E27FFFB5F00276
:100A0F000F2240027F012289828A83ECFAE0F5F0FF
:100A1F00A3C8C582C8CCC583CCE0A3C8C582C8CC47
:100A2F00C583CCB5F0D560D380E389828A83ECFA95
:100A3F00E0F5F0A3C8C582C8CCC583CCE493A3C8A6
:100A4F00C582C8CCC583CCB5F0B160AF80E288F069
:100A5F00ED2402B4040050A3F582EB2402B4040089
:0B0A6F005099232345822390095873FF
:100BE200020EE9E493A3F8E493A34003F68001F232
:100BF20008DFF48029E493A3F85407240CC8C33314
:100C0200C4540F4420C8834004F456800146F6DFE2
:100C1200E4800B0102040810204080900DC0E47EA5
:100C2200019360BCA3FF543F30E509541FFEE493D7
:100C3200A360010ECF54C025E060A840B8E493A39E
:100C4200FAE493A3F8E493A3C8C582C8CAC583CAC9
:100C5200F0A3C8C582C8CAC583CADFE9DEE780BE81
:010E1A0000D7
:00000001FF
