:100CF30057616974696E672E2E2E00506C6561739F
:100D03006520696E7075742070617373776F726498
:040D1300210D0A00A4
:100CCF00120D42120D57120D6BD2AFC2997BFF7AE4
:100CDF000C79F3E4FDFF120CA77BFF7A0C79FE125F
:040CEF000C7B80FEFC
:090BB3000311173B1D02140000A0
:100D6B005389F0438901758AD5758C97C28DD28CC6
:030D7B00D2A922D8
:03000B00020C3AAA
:100C3A00C0E0C0D00515E51570020514758AD57592
:100C4A008C97D28CE5156464451470200513F5144D
:100C5A00F515E513B43C15051275130075123C051C
:100C6A0011751200E511B41803751100D0D0D0E047
:010C7A003247
:090DC60000000000000000002202
:100D57007F38120D7E7F0C120D7E7F06120D7E7F6F
:040D670001020D7EFA
:100D2D007580FFC2A6D2A5D2A7AF80120DC6C2A7ED
:040D3D00EF20E7F3C9
:010D4100228F
:100D7E00AE07120D2DC2A6C2A58E80120DC6D2A729
:030D8E00C2A722D7
:100D9100AE07120D2DD2A6C2A58E80120DC6D2A706
:030DA100C2A722C4
:100DA400ED7004AC078004EF2440FCEC4480FF02A7
:020DB4000D7EB2
:100CA7008B0E8A0F8910120DA4AB0EAA0FA9101272
:100CB700080060130510E5107002050F14F91208FB
:080CC70000FF120D9180E222F2
:100B6D003132333435360057656C636F6D652074E3
:100B7D006F20796F75210D0A0054686520706173BF
:100B8D0073776F7264206973206572726F722120A2
:100B9D00506C6561736520696E7075742061676155
:060BAD00696E210D0A0033
:100BBC0020283F506C6561736520696E70757420D8
:100BCC0070617373776F7264210000000000000085
:100BDC000000000000000000000000066801020395
:080BEC00040506016700C100C9
:100D4200438780759850438E04759C30438E0143CF
:050D52008E10D2AC225E
:060BF8008B098A0A890B3B
:100BFE00E4FF750C86750DA0E50D150DAC0C70029D
:100C0E00150C4C60183098F0C298AB09AA0AA90BC3
:100C1E008F82758300E5991208190F80DBAB09AA44
:0C0C2E000AA90B8F82758300E4020819EC
:100C7B008B0E8A0F8910C2ACAB0EAA0FA9101208EB
:100C8B000060160510E5107002050F14F91208002C
:0C0C9B00F5993099FDC29980DFD2AC229F
:03002300020AF4DA
:100AF400C0E0C0F0C083C082C0D075D000C000C0C8
:0D0B040001C002C003C004C005C006C00748
:100B11007508007E017B007A007921120BF8E567E8
:100B21007012786D7C0B7DFFFB7A0079211209B977
:100B3100AE070567EE700B7BFF7A0B7974120C7BA5
:100B4100D200EE600C2000097BFF7A0B7986120C33
:010B51007B28
:100B5200D007D006D005D004D003D002D001D000F7
:0B0B6200D0D0D082D083D0F0D0E032A1
:100DB6003F065B4F666D7D077F6F777C395E797185
:030BF400011600E7
:100D1700538EBF53890F438910758B2B758DEBC28B
:060D27008FD28ED2AB2238
:03001B000209D601
:1009D600C0E0C083C082C0D075D000C000758B2B2C
:1009E600758DEBD28E758000E516B40800506890C0
:1009F60009FCF8282873020A14020A18020A1E02C1
:100A06000A24020A2C020A34020A3C020A4DD2A225
:100A16008002C2A2D2A3800AD2A2C2A38004C2A22A
:100A2600C2A3D2A48016D2A2D2A3C2A4800EC2A20E
:100A3600D2A3C2A48006D2A2C2A3C2A4900DB6E4D9
:100A460093F58005168010C2A2C2A3C2A4900DB66B
:100A5600E493F580751600D000D0D0D082D083D034
:020A6600E0327C
:03000000020A6889
:0C0A6800787FE4F6D8FD75816D020AAFBE
:10080000BB010689828A83E0225002E722BBFE02F6
:09081000E32289828A83E4932229
:10081900F8BB010DE58229F582E5833AF583E8F015
:10082900225006E92582C8F622BBFE05E92582C8C1
:02083900F222A9
:10083B00E3F5F009E208B5F06D606B80F3E3F5F0DA
:10084B0009E608B5F060605E80F387F009E608B54D
:10085B00F054605280F487F009E208B5F048604626
:10086B0080F488828C8387F009E0A3B5F03860367A
:10087B0080F488828C8387F009E493A3B5F027601A
:10088B002580F388828C83E3F5F009E0A3B5F0169D
:10089B00601480F388828C83E3F5F009E493A3B5AD
:1008AB00F004600280F2020966808580E7808E800A
:1008BB00D2803C8015806C807E809B80B5808B8045
:1008CB00A1804F8070803A02097289828A83ECFA88
:1008DB00E493F5F0A3C8C582C8CCC583CCE493A33D
:1008EB00C8C582C8CCC583CCB5F070606E80E18979
:1008FB00828A83E493F5F0A3E208B5F05E605C8036
:10090B00F289828A83E0F5F0A3E608B5F04D604BDF
:10091B0080F389828A83E0F5F0A3E208B5F03C60AE
:10092B003A80F389828A83E493F5F0A3E608B5F065
:10093B002A602880F2805389828A83ECFAE493F54B
:10094B00F0A3C8C582C8CCC583CCE0A3C8C582C8F8
:10095B00CCC583CCB5F004600280E27FFFB5F0021A
:10096B000F2240027F012289828A83ECFAE0F5F0A4
:10097B00A3C8C582C8CCC583CCE0A3C8C582C8CCEC
:10098B00C583CCB5F0D560D380E389828A83ECFA3A
:10099B00E0F5F0A3C8C582C8CCC583CCE493A3C84B
:1009AB00C582C8CCC583CCB5F0B160AF80E288F00E
:1009BB00ED2402B4040050A3F582EB2402B404002E
:0B09CB00509923234582239008B47349
:100A7400020CCFE493A3F8E493A34003F68001F2BD
:100A840008DFF48029E493A3F85407240CC8C33383
:100A9400C4540F4420C8834004F456800146F6DF52
:100AA400E4800B0102040810204080900BB3E47E24
:100AB400019360BCA3FF543F30E509541FFEE49347
:100AC400A360010ECF54C025E060A840B8E493A30E
:100AD400FAE493A3F8E493A3C8C582C8CAC583CA39
:100AE400F0A3C8C582C8CAC583CADFE9DEE780BEF1
:010BF70000FD
:00000001FF
