:100E120057616974696E672E2E2E00506C6561737E
:100E22006520696E7075742070617373776F726478
:040E3200210D0A0084
:100D9000120EA5120EBA120ECED2AFC299C2A8D2AE
:100DA000887BFF7A0E7912E4FDFF120DEA7BFF7A51
:0E0DB0000E791D120DBE3000FD75194180FE3A
:040F3E00410042002C
:100CB0000308173B1D0316000100090D000000008A
:090CC0000000000000020B00001E
:100ECE005389F0438901758AD5758C97C28DD28C62
:030EDE00D2A92274
:100C4C00120822FF75F00A1208002430F50DEF751A
:100C5C00F00A120800AFF0EF2430F50E750F2D904E
:100C6C00000112083BFF75F00A1208002430F51041
:100C7C00EF75F00A120800AFF0EF2430F511751281
:100C8C002D90000212083BFF75F00A120800243068
:100C9C00F513EF75F00A120800AFF0EF2430F514DD
:040CAC00E4F5152234
:100E36007BFF7A0F793EE4FDFF120DEA7B007A0014
:100E46007908120C4C7B007A00790D7D01E4FF02D3
:020E56000DEAA3
:100E58007BFF7A0F7940E4FDFF120DEA7B007A00F0
:100E68007916120C4C7B007A00790D7D01E4FF02A3
:020E78000DEA81
:03000B00020AB72F
:100AB700C0E0C0F0C083C082C0D075D000C000C005
:100AC70001C002C003C004C005C006C007050CE58D
:100AD7000C7002050B758AD5758C97D28CE50C6462
:100AE70064450B7020050AF50BF50CE50AB43C15B7
:100AF7000509750A0075093C0508750900E508B47C
:100B07001803750800E50C640A450B7008E519B46D
:100B17004103120E36E50C640A450B7008E519B45B
:100B27004203120E58D007D006D005D004D003D008
:100B370002D001D000D0D0D082D083D0F0D0E03224
:090F350000000000000000002291
:100EBA007F38120EE17F0C120EE17F06120EE17FDF
:040ECA0001020EE132
:100E90007580FFC2A6D2A5D2A7AF80120F35C2A718
:040EA000EF20E7F365
:010EA400222B
:100EE100AE07120E90C2A6C2A58E80120F35D2A7F0
:030EF100C2A72273
:100EF400AE07120E90D2A6C2A58E80120F35D2A7CD
:030F0400C2A7225F
:100F0700ED7004AC078004EF2440FCEC4480FF0242
:020F17000EE1E9
:100DEA008B778A788979120F07AB77AA78A9791253
:100DFA00082260130579E5797002057814F912085A
:080E0A0022FF120EF480E22227
:100D08003132333435360057656C636F6D65207446
:100D18006F20796F75210D0A005468652070617322
:100D280073776F7264206973206572726F72212005
:100D3800506C6561736520696E70757420616761B8
:060D4800696E210D0A0096
:100CC90020283F506C6561736520696E70757420CA
:100CD90070617373776F7264210000000000000077
:100CE9000000000000000000000000066801020387
:080CF900040506016700C100BB
:100EA500438780759850438E04759C30438E01436B
:050EB5008E10D2AC22FA
:060D4E008B728A738974A8
:100D5400E4FF7575867576A0E5761576AC75700238
:100D640015754C60183098F0C298AB72AA73A974C8
:100D74008F82758300E5991208680F80DBAB72AA35
:0C0D840073A9748F82758300E402086874
:100DBE008B778A788979C2ACAB77AA78A979120831
:100DCE002260160579E5797002057814F912082269
:0C0DDE00F5993099FDC29980DFD2AC225B
:03002300020BD3FA
:100BD300C0E0C0F0C083C082C0D075D000C000C0E8
:0D0BE30001C002C003C004C005C006C00769
:100BF0007571007E017B007A007921120D4EE56748
:100C0000701278087C0D7DFFFB7A007921120A08AA
:100C1000AE070567EE700B7BFF7A0D790F120DBEE4
:100C2000D200EE600C2000097BFF7A0D7921120DB5
:010C3000BE05
:100C3100D007D006D005D004D003D002D001D00017
:0B0C4100D0D0D082D083D0F0D0E032C1
:100F19003F065B4F666D7D077F6F777C395E797120
:030D0100011A00D4
:100E7A00538EBF53890F438910758B2B758DEBC227
:060E8A008FD28ED2AB22D4
:03001B00020A25B1
:100A2500C0E0C083C082C0D075D000C000758B2BDC
:100A3500758DEBD28E758000E51AB408005068906C
:100A45000A4BF8282873020A63020A67020A6D0234
:100A55000A73020A7B020A83020A8B020A9CD2905D
:100A65008002C290D291800AD290C2918004C29035
:100A7500C291D2928016D290D291C292800EC2902B
:100A8500D291C2928006D290C291C292900F19E47F
:100A950093F5A0051A8010C290C291C292900F19C9
:100AA500E493F5A0751A00D000D0D0D082D083D0C1
:020AB500E0322D
:030D0400011B00D0
:010F4200228C
:03000300020F29C0
:0C0F290020B40375194220B502051B32EC
:03000000020B47A9
:0C0B4700787FE4F6D8FD758179020B8EF2
:10080000C2D530F707B2D563F0FF05F030E70CB280
:10081000D5F4048463F0FF05F080018430D502F440
:020820000422B0
:10082200BB010689828A83E0225002E722BBFE02D4
:09083200E32289828A83E4932207
:10083B00BB010CE58229F582E5833AF583E0225072
:10084B0006E92582F8E622BBFE06E92582F8E222BC
:0D085B00E58229F582E5833AF583E49322D6
:10086800F8BB010DE58229F582E5833AF583E8F0C6
:10087800225006E92582C8F622BBFE05E92582C872
:02088800F2225A
:10088A00E3F5F009E208B5F06D606B80F3E3F5F08B
:10089A0009E608B5F060605E80F387F009E608B5FE
:1008AA00F054605280F487F009E208B5F0486046D7
:1008BA0080F488828C8387F009E0A3B5F03860362B
:1008CA0080F488828C8387F009E493A3B5F02760CB
:1008DA002580F388828C83E3F5F009E0A3B5F0164E
:1008EA00601480F388828C83E3F5F009E493A3B55E
:1008FA00F004600280F20209B5808580E7808E806C
:10090A00D2803C8015806C807E809B80B5808B80F5
:10091A00A1804F8070803A0209C189828A83ECFAE9
:10092A00E493F5F0A3C8C582C8CCC583CCE493A3ED
:10093A00C8C582C8CCC583CCB5F070606E80E18929
:10094A00828A83E493F5F0A3E208B5F05E605C80E6
:10095A00F289828A83E0F5F0A3E608B5F04D604B90
:10096A0080F389828A83E0F5F0A3E208B5F03C605F
:10097A003A80F389828A83E493F5F0A3E608B5F016
:10098A002A602880F2805389828A83ECFAE493F5FC
:10099A00F0A3C8C582C8CCC583CCE0A3C8C582C8A9
:1009AA00CCC583CCB5F004600280E27FFFB5F002CB
:1009BA000F2240027F012289828A83ECFAE0F5F055
:1009CA00A3C8C582C8CCC583CCE0A3C8C582C8CC9D
:1009DA00C583CCB5F0D560D380E389828A83ECFAEB
:1009EA00E0F5F0A3C8C582C8CCC583CCE493A3C8FC
:1009FA00C582C8CCC583CCB5F0B160AF80E288F0BF
:100A0A00ED2402B4040050A3F582EB2402B40400DE
:0B0A1A005099232345822390090373A9
:100B5300020D90E493A3F8E493A34003F68001F21B
:100B630008DFF48029E493A3F85407240CC8C333A3
:100B7300C4540F4420C8834004F456800146F6DF72
:100B8300E4800B0102040810204080900CB0E47E46
:100B9300019360BCA3FF543F30E509541FFEE49367
:100BA300A360010ECF54C025E060A840B8E493A32E
:100BB300FAE493A3F8E493A3C8C582C8CAC583CA59
:100BC300F0A3C8C582C8CAC583CADFE9DEE780BE11
:010D070000EB
:00000001FF
