:10132C0057616974696E672E2E2E00506C6561735F
:10133C006520696E7075742070617373776F726459
:04134C00210D0A0065
:101047001213CA1213DF1213F312139FD2AFC299EE
:10105700D288D2A87BFF7A13792CE4FDFF12130400
:101067007BFF7A1379371212D83000FD757A411257
:101077000D96300202B2977F2C7E01121462AE19D0
:10108700AF1A7C037DE81209FBD3EF951DEE9400A0
:101097005009C3EF951EEE94005006D201C2B080EE
:0710A700CEC201D2B080C8E7
:10143E00410056313A00420056483A00564C3A00A6
:100F4E000308173B1D0316000100090D00000000E9
:100F5E000000000000510000000000000000000032
:0D0F6E00000000000000000000020B000069
:1013F3005389F0438901758AD5758C97C28DD28C38
:03140300D2A92249
:1010AE00120981FF75F00A12095F2430F50DEF75F4
:1010BE00F00A12095FAFF0EF2430F50E750F2D9088
:1010CE00000112099AFF75F00A12095F2430F5101B
:1010DE00EF75F00A12095FAFF0EF2430F5117512BB
:1010EE002D90000212099AFF75F00A12095F243042
:1010FE00F513EF75F00A12095FAFF0EF2430F51417
:04110E00E4F51522CD
:1011C2007F011214067BFF7A14793EE4FDFF1213AD
:1011D200047B007A0079081210AE7B007A00790D48
:1011E200E4FD7F04121304AF1AAE1912116B7BFFD8
:1011F2007A1479407D01E4FF1213047B017A0079AD
:08120200117D017F03021304BA
:101112007F011214067BFF7A147944E4FDFF121357
:10112200047B007A0079161210AE7B007A00790DEA
:10113200E4FD7F041213047BFF7A1479467D01E4F7
:10114200FF121304E51D2430FB7D017F0312147589
:101152007BFF7A14794A7D017F08121304E51E246D
:0911620030FB7D017F0B021475C6
:100E3500E4FF74112FF582E43400F583E0FE7400BD
:100E45002FF582E43400F583EEF00FBF04E4900043
:100E550004742BF0E50875F00A12095F2430900040
:100E650005F0E50875F00A12095FAFF0EF24309040
:100E75000006F0E50975F00A12095F2430900007B5
:100E8500F0E50975F00A12095FAFF0EF2430900024
:100E950008F0E50A75F00A12095F2430900009F0A0
:100EA500E50A75F00A12095FAFF0EF243090000AE9
:0C0EB500F0A3740DF0A3740AF0E4A3F0A5
:010EC100220E
:03000B00020CD70D
:100CD700C0E0C0F0C083C082C0D075D000C000C0E3
:100CE70001C002C003C004C005C006C007050CE56B
:100CF7000C7002050B758AD5758C97D28CE50C6440
:100D070064450B7022050AF50BF50CE50AB43C1790
:100D17000509750A00E509B43C0D0508750900E5E4
:100D270008B41803750800E508B5160CE509B517EA
:100D370007E50AB51802D202E50C640A450B7008EC
:100D4700E57AB441031211C2E50C640A450B700839
:100D5700E57AB44203121112E50C645F450B701477
:100D670030011130000E120E35C2997B017A0079DD
:100D7700001212D8D007D006D005D004D003D00275
:0F0D8700D001D000D0D0D082D083D0F0D0E032D5
:090F7B0046001100000000000016
:09146C0000000000000000002255
:1013DF007F381214067F0C1214067F061214067F34
:0413EF0001021406DD
:1013B5007580FFC2A6D2A5D2A7AF8012146CC2A7B2
:0413C500EF20E7F33B
:0113C9002201
:10140600AE071213B5C2A6C2A58E8012146CD2A75F
:03141600C2A72248
:10141900AE071213B5D2A6C2A58E8012146CD2A73C
:03142900C2A72235
:10142C00ED7004AC078004EF2440FCEC4480FF0218
:02143C00140694
:101304008B778A78897912142CAB77AA78A9791209
:10131400098160130579E5797002057814F91209D9
:0813240081FF12141980E2227E
:0814750012142CAF030214193C
:04116B00AB07AA061E
:10116F00E4F56E7C037DE81209FBEF24309000114B
:10117F00F0A3742EF07C037DE8AF03AE021209FBDF
:10118F007E007F64CFCDCFCECCCE1209FBEF2430C3
:10119F00A3F0AE02AF037C007D641209FB7E007FDB
:1011AF000ACFCDCFCECCCE1209FBEF2430A3F0E483
:0211BF00A3F09B
:0111C100220B
:10120A003132333435360057656C636F6D6520743F
:10121A006F20796F75210D0A00546865207061731B
:10122A0073776F7264206973206572726F722120FE
:10123A00506C6561736520696E70757420616761B1
:06124A00696E210D0A008F
:100F840020283F506C6561736520696E707574200C
:100F940070617373776F72642100000000000000B9
:100FA40000000000000000000000000668010203C9
:0A0FB400040506016700C100C10139
:1013CA00438780759850438E04759C30438E014341
:0513DA008E10D2AC22D0
:061296008B728A7389745B
:10129C00E4FF7575867576A0E5761576AC757002EB
:1012AC0015754C60183098F0C298AB72AA73A9747B
:1012BC008F82758300E5991209C70F80DBAB72AA88
:0C12CC0073A9748F82758300E40209C7C7
:1012D8008B778A788979C2ACAB77AA78A979120911
:1012E8008160160579E5797002057814F91209818B
:0C12F800F5993099FDC29980DFD2AC223C
:03002300020FCEFB
:100FCE00C0E0C0F0C083C082C0D075D000C000C0E9
:0D0FDE0001C002C003C004C005C006C0076A
:100FEB007571007E017B007A007921121296E567FC
:100FFB007012780A7C127DFFFB7A007921120BDCD0
:10100B00AE070567EE700B7BFF7A1279111212D8BF
:10101B00D200EE600C2000097BFF7A1279231212AA
:01102B00D8EC
:10102C00D007D006D005D004D003D002D001D00018
:0B103C00D0D0D082D083D0F0D0E032C2
:10144E003F065B4F666D7D077F6F777C395E7971E6
:060FBE00011C00011B00F4
:10139F00538EBF53890F438910758B2B758DEBC2FD
:0613AF008FD28ED2AB22AA
:100BF900E51BB4322D7F941213868E198F1A7C004F
:100C09007D051209E9AC06AD07E41208A57B6F7AE8
:100C190012798378401208031208DE8E198F1AE4BC
:100C2900F51BE4F5A0E51C14602814604D146079E7
:100C390024036003020CD6D290D291D292AE19AF9E
:100C49001A7C007D0A1209FB744E2DF58274143C3E
:100C5900804EC290D291D292AE19AF1A7C007D64B7
:100C69001209FB7E007F0ACFCDCFCECCCE1209FB75
:100C7900744E2FF58274143E8026D290C291D2927E
:100C8900AE19AF1A7C037DE81209FB7E007F64CFA1
:100C9900CDCFCECCCE1209FB744E2FF58274143E03
:100CA900F583E493F5A0051C22C290C291D292AEBD
:100CB90019AF1A7C037DE81209FB744E2FF5827473
:0E0CC900143EF583E4934480F5A0E4F51C226C
:03001B000212507E
:10125000C0E0C0F0C083C082C0D075D000C000C064
:1012600001C002C003C004C005C006C007758B2BB7
:10127000758DEB758000120BF9051BD007D006D0D9
:1012800005D004D003D002D001D000D0D0D082D07D
:0612900083D0F0D0E03233
:090FC400011F00011D06011E04BD
:04145E007FA07E8667
:0A146200EF1F70011E144E70F722F8
:100D960020B40EE57AB44109757A4230B4FD1214D6
:100DA6005E20B40EE57AB44209757A4130B4FD127C
:100DB600145E20B515E57AB44210051FE51FB4068A
:100DC60003E4F51F30B5FD12145E20B659E57A64CA
:100DD600427053E51F24FE601914602214602B1420
:100DE60060342404703A0516E51664187032F51658
:100DF600802E0517E517643C7026F5178022051826
:100E0600E518B43C1BE4F5188016051DE51DB40A6B
:100E16000FE4F51D800A051EE51EB40A03E4F51E5F
:0F0E260030B6FD12145E20B705300202C2022260
:10135000C296E4FEEFC4131313540124FF9294EFDA
:0B13600025E0FFC296D2960EBE08E901
:01136B00225F
:10136C00E4FFFEFDEF25E0FFEE33FED296C296A21F
:09137C0093E43342070DBD0CEBB4
:011385002245
:10138600C296C2951213507F06DFFED2960000C2A7
:0813960096000012136CD295C1
:01139E00222C
:10080000020954EC5D046005E85904700302094ACA
:10081000120915580460F6EC4860F2EC7004FDFE15
:10082000FF22C860DB2481C85009C39860025006CB
:100830000209519850CAF582E9294B4A7005AB82EA
:1008400002094075F0007C1A7880C3EF9BEE9AEDA8
:1008500099400DC3EF9BFFEE9AFEED99FDE842F043
:10086000DC23ACF0D0E0FFD0E0FED0E0FDAB822096
:10087000E7101BEB60BAEC2CFCEF33FFEE33FEED20
:1008800033FD02092CE803F830E705C0F075F000ED
:10089000EF2FFFEE33FEED33FD40B830E7C280AA04
:1008A00075F020800E75F010800575F0087D007ED3
:1008B000007F003392D530D503120A50EC3340103C
:1008C000EF33FFEE33FEED33FDEC33FCD5F0ED22DC
:0E08D000E5F0247EA2D513CC92E7CDCEFF2218
:1008DE00EDD2E7CD33EC3392D524814006E4FFFE12
:1008EE00FDFC22FCE4CFCECDCC24E0501174FF8071
:1008FE00EDC3CC13CCCD13CDCE13CECF13CF04700E
:07090E00F030D5DE020A50B3
:10091500E9D2E7C933E833F892D5EDD2E7CD33EC28
:0709250033FC5002B2D522A1
:10092C00EC30E7100FBF000C0EBE00080DBD00042C
:10093C000BEB6014A2D5EB13FCED92E7FD2274FFD8
:10094C00FCFDFEFF22E480F8A2D574FF13FC7D8031
:03095C00E480EF45
:03000000020EC22B
:0C0EC200787FE4F6D8FD75817A020F09F4
:10095F00C2D530F707B2D563F0FF05F030E70CB220
:10096F00D5F4048463F0FF05F080018430D502F4E0
:02097F00042250
:10098100BB010689828A83E0225002E722BBFE0274
:09099100E32289828A83E49322A7
:10099A00BB010CE58229F582E5833AF583E0225012
:1009AA0006E92582F8E622BBFE06E92582F8E2225C
:0D09BA00E58229F582E5833AF583E4932276
:1009C700F8BB010DE58229F582E5833AF583E8F066
:1009D700225006E92582C8F622BBFE05E92582C812
:0209E700F222FA
:1009E900EF8DF0A4A8F0CF8CF0A428CE8DF0A42E22
:0209F900FE22DC
:1009FB00BC000BBE0029EF8DF084FFADF022E4CCE0
:100A0B00F875F008EF2FFFEE33FEEC33FCEE9DECA8
:100A1B00984005FCEE9DFE0FD5F0E9E4CEFD22EDEE
:100A2B00F8F5F0EE8420D21CFEADF075F008EF2F38
:100A3B00FFED33FD4007985006D5F0F222C398FD29
:050A4B000FD5F0EA22C6
:0E0A5000C3E49FFFE49EFEE49DFDE49CFC22B7
:100A5E00E3F5F009E208B5F06D606B80F3E3F5F0B5
:100A6E0009E608B5F060605E80F387F009E608B528
:100A7E00F054605280F487F009E208B5F048604601
:100A8E0080F488828C8387F009E0A3B5F038603655
:100A9E0080F488828C8387F009E493A3B5F02760F5
:100AAE002580F388828C83E3F5F009E0A3B5F01678
:100ABE00601480F388828C83E3F5F009E493A3B588
:100ACE00F004600280F2020B89808580E7808E80C0
:100ADE00D2803C8015806C807E809B80B5808B8020
:100AEE00A1804F8070803A020B9589828A83ECFA3E
:100AFE00E493F5F0A3C8C582C8CCC583CCE493A318
:100B0E00C8C582C8CCC583CCB5F070606E80E18953
:100B1E00828A83E493F5F0A3E208B5F05E605C8010
:100B2E00F289828A83E0F5F0A3E608B5F04D604BBA
:100B3E0080F389828A83E0F5F0A3E208B5F03C6089
:100B4E003A80F389828A83E493F5F0A3E608B5F040
:100B5E002A602880F2805389828A83ECFAE493F526
:100B6E00F0A3C8C582C8CCC583CCE0A3C8C582C8D3
:100B7E00CCC583CCB5F004600280E27FFFB5F002F5
:100B8E000F2240027F012289828A83ECFAE0F5F07F
:100B9E00A3C8C582C8CCC583CCE0A3C8C582C8CCC7
:100BAE00C583CCB5F0D560D380E389828A83ECFA15
:100BBE00E0F5F0A3C8C582C8CCC583CCE493A3C826
:100BCE00C582C8CCC583CCB5F0B160AF80E288F0E9
:100BDE00ED2402B4040050A3F582EB2402B4040009
:0B0BEE0050992323458223900AD773FF
:100ECE00021047E493A3F8E493A34003F68001F2E3
:100EDE0008DFF48029E493A3F85407240CC8C33325
:100EEE00C4540F4420C8834004F456800146F6DFF4
:100EFE00E4800B0102040810204080900F4EE47E27
:100F0E00019360BCA3FF543F30E509541FFEE493E8
:100F1E00A360010ECF54C025E060A840B8E493A3AF
:100F2E00FAE493A3F8E493A3C8C582C8CAC583CADA
:100F3E00F0A3C8C582C8CAC583CADFE9DEE780BE92
:010FCD000023
:00000001FF
