:10118A0057616974696E672E2E2E00506C65617303
:10119A006520696E7075742070617373776F7264FD
:0411AA00210D0A0009
:100EA50012122812123D1212511211FDD2AFC2991F
:100EB500D288D2A87BFF7A11798AE4FDFF121162EC
:100EC5007BFF7A1179951211363000FD757A411242
:100ED5000BF4300202B2977F2C7E011212C0AE19BC
:100EE500AF1A7C037DE812088AD3EF951DEE9400B6
:100EF5005009C3EF951EEE94005006D201C2B08092
:070F0500CEC201D2B080C88A
:10129C00410056313A00420056483A00564C3A004A
:100DAC000308173B1D0316173B28090D0000000014
:100DBC0000000000005100000000000000000000D6
:0D0DCC00000000000000000000020B00000D
:101251005389F0438901758AD5758C97C28DD28CDB
:03126100D2A922ED
:100F0C00120822FF75F00A1208002430F50DEF7557
:100F1C00F00A120800AFF0EF2430F50E750F2D908B
:100F2C00000112083BFF75F00A1208002430F5107E
:100F3C00EF75F00A120800AFF0EF2430F5117512BE
:100F4C002D90000212083BFF75F00A1208002430A5
:100F5C00F513EF75F00A120800AFF0EF2430F5141A
:040F6C00E4F5152271
:101020007F011212647BFF7A12799CE4FDFF12119A
:10103000627B007A007908120F0C7B007A00790D30
:10104000E4FD7F04121162AF1AAE19120FC97BFFC3
:101050007A12799E7D01E4FF1211627B017A007998
:08106000117D017F0302116202
:100F70007F011212647BFF7A1279A2E4FDFF121145
:100F8000627B007A007916120F0C7B007A00790DD3
:100F9000E4FD7F041211627BFF7A1279A47D01E4E3
:100FA000FF121162E51D2430FB7D017F031212D375
:100FB0007BFF7A1279A87D017F08121162E51E2459
:090FC00030FB7D017F0B0212D30E
:100C9300E4FF74112FF582E43400F583E0FE740061
:100CA3002FF582E43400F583EEF00FBF04E49000E7
:100CB30004742BF0E50875F00A1208002430900044
:100CC30005F0E50875F00A120800AFF0EF24309044
:100CD3000006F0E50975F00A1208002430900007B9
:100CE300F0E50975F00A120800AFF0EF2430900028
:100CF30008F0E50A75F00A1208002430900009F0A4
:100D0300E50A75F00A120800AFF0EF243090000AEC
:0C0D1300F0A3740DF0A3740AF0E4A3F048
:010D1F0022B1
:03000B00020A7A6C
:100A7A00C0E0C0F0C083C082C0D075D000C000C042
:100A8A0001C002C003C004C005C006C007050CE5CA
:100A9A000C7002050B758AD5758C97D28CE50C649F
:100AAA0064450B7020050AF50BF50CE50AB43C15F4
:100ABA000509750A0075093C0508750900E508B4B9
:100ACA001803750800E508B5160CE509B51707E51A
:100ADA000AB51802D202E50C640A450B7008E57AD9
:100AEA00B44103121020E50C640A450B7008E57A3C
:100AFA00B44203120F70E50C645F450B70143001A9
:100B0A001130000E120C93C2997B017A00790012FF
:100B1A001136D007D006D005D004D003D002D001B8
:0D0B2A00D000D0D0D082D083D0F0D0E03207
:090DD900460011000000000000BA
:0912CA00000000000000000022F9
:10123D007F381212647F0C1212647F061212647FC3
:04124D000102126424
:101213007580FFC2A6D2A5D2A7AF801212CAC2A7F9
:04122300EF20E7F3DE
:0112270022A4
:10126400AE07121213C2A6C2A58E801212CAD2A74A
:03127400C2A722EC
:10127700AE07121213D2A6C2A58E801212CAD2A727
:03128700C2A722D9
:10128A00ED7004AC078004EF2440FCEC4480FF02BC
:02129A001264DC
:101162008B778A78897912128AAB77AA78A9791251
:10117200082260130579E5797002057814F91208DE
:0811820022FF12127780E22225
:0812D30012128AAF0302127728
:040FC900AB07AA06C2
:100FCD00E4F56E7C037DE812088AEF243090001161
:100FDD00F0A3742EF07C037DE8AF03AE0212088AF5
:100FED007E007F64CFCDCFCECCCE12088AEF2430D9
:100FFD00A3F0AE02AF037C007D6412088A7E007FF1
:10100D000ACFCDCFCECCCE12088AEF2430A3F0E498
:02101D00A3F03E
:01101F0022AE
:101068003132333435360057656C636F6D652074E3
:101078006F20796F75210D0A0054686520706173BF
:1010880073776F7264206973206572726F722120A2
:10109800506C6561736520696E7075742061676155
:0610A800696E210D0A0033
:100DE20020283F506C6561736520696E70757420B0
:100DF20070617373776F726421000000000000005D
:100E0200000000000000000000000006680102036C
:0A0E1200040506016700C100C101DC
:10122800438780759850438E04759C30438E0143E4
:051238008E10D2AC2273
:0610F4008B728A738974FF
:1010FA00E4FF7575867576A0E5761576AC7570028F
:10110A0015754C60183098F0C298AB72AA73A9741E
:10111A008F82758300E5991208680F80DBAB72AA8B
:0C112A0073A9748F82758300E4020868CA
:101136008B778A788979C2ACAB77AA78A9791208B5
:101146002260160579E5797002057814F9120822ED
:0C115600F5993099FDC29980DFD2AC22DF
:03002300020E2C9E
:100E2C00C0E0C0F0C083C082C0D075D000C000C08C
:0D0E3C0001C002C003C004C005C006C0070D
:100E49007571007E017B007A0079211210F4E56743
:100E5900701278687C107DFFFB7A007921120A5D97
:100E6900AE070567EE700B7BFF7A10796F121136AA
:100E7900D200EE600C2000097BFF7A1079811211F3
:010E89003632
:100E8A00D007D006D005D004D003D002D001D000BC
:0B0E9A00D0D0D082D083D0F0D0E03266
:1012AC003F065B4F666D7D077F6F777C395E79718A
:060E1C00011C00011B0097
:1011FD00538EBF53890F438910758B2B758DEBC2A1
:06120D008FD28ED2AB224D
:100B3700E51BB4320C7F941211E48E198F1AE4F579
:100B47001BE4F5A0E51C14602814604D146079249B
:100B5700036003020BF3D290D291D292AE19AF1A6F
:100B67007C007D0A12088A74AC2DF58274123C80D1
:100B77004EC290D291D292AE19AF1A7C007D641208
:100B8700088A7E007F0ACFCDCFCECCCE12088A74DA
:100B9700AC2FF58274123E8026D290C291D292AECB
:100BA70019AF1A7C037DE812088A7E007F64CFCDD7
:100BB700CFCECCCE12088A74AC2FF58274123EF5D4
:100BC70083E493F5A0051C22C290C291D292AE197C
:100BD700AF1A7C037DE812088A74AC2FF582741271
:0D0BE7003EF583E4934480F5A0E4F51C2264
:03001B000210AE22
:1010AE00C0E0C0F0C083C082C0D075D000C000C008
:1010BE0001C002C003C004C005C006C007758B2B5B
:1010CE00758DEB758000120B37051BD007D006D03F
:1010DE0005D004D003D002D001D000D0D0D082D021
:0610EE0083D0F0D0E032D7
:090E2200011F00011D05011E0362
:0412BC007FA07E860B
:0A12C000EF1F70011E144E70F7229C
:100BF40020B40EE57AB44109757A4230B4FD12127C
:100C0400BC20B40EE57AB44209757A4130B4FD12C1
:100C140012BC20B515E57AB44210051FE51FB406D1
:100C240003E4F51F30B5FD1212BC20B659E57A6411
:100C3400427053E51F24FE601914602214602B14C3
:100C440060342404703A0516E51664197032F516FA
:100C5400802E0517E517643C7026F51780220518C9
:100C6400E518B43C1BE4F5188016051DE51DB40A0F
:100C74000FE4F51D800A051EE51EB40A03E4F51E03
:0F0C840030B6FD1212BC20B705300202C20222A8
:1011AE00C296E4FEEFC4131313540124FF9294EF7E
:0B11BE0025E0FFC296D2960EBE08E9A5
:0111C9002203
:1011CA00E4FFFEFDEF25E0FFEE33FED296C296A2C3
:0911DA0093E43342070DBD0CEB58
:0111E30022E9
:1011E400C296C2951211AE7F06DFFED2960000C2EF
:0811F4009600001211CAD29509
:0111FC0022D0
:03000000020D20CE
:0C0D2000787FE4F6D8FD75817A020D673B
:10080000C2D530F707B2D563F0FF05F030E70CB280
:10081000D5F4048463F0FF05F080018430D502F440
:020820000422B0
:10082200BB010689828A83E0225002E722BBFE02D4
:09083200E32289828A83E4932207
:10083B00BB010CE58229F582E5833AF583E0225072
:10084B0006E92582F8E622BBFE06E92582F8E222BC
:0D085B00E58229F582E5833AF583E49322D6
:10086800F8BB010DE58229F582E5833AF583E8F0C6
:10087800225006E92582C8F622BBFE05E92582C872
:02088800F2225A
:10088A00BC000BBE0029EF8DF084FFADF022E4CC52
:10089A00F875F008EF2FFFEE33FEEC33FCEE9DEC1B
:1008AA00984005FCEE9DFE0FD5F0E9E4CEFD22ED61
:1008BA00F8F5F0EE8420D21CFEADF075F008EF2FAB
:1008CA00FFED33FD4007985006D5F0F222C398FD9C
:0508DA000FD5F0EA2239
:1008DF00E3F5F009E208B5F06D606B80F3E3F5F036
:1008EF0009E608B5F060605E80F387F009E608B5A9
:1008FF00F054605280F487F009E208B5F048604682
:10090F0080F488828C8387F009E0A3B5F0386036D5
:10091F0080F488828C8387F009E493A3B5F0276075
:10092F002580F388828C83E3F5F009E0A3B5F016F8
:10093F00601480F388828C83E3F5F009E493A3B508
:10094F00F004600280F2020A0A808580E7808E80C0
:10095F00D2803C8015806C807E809B80B5808B80A0
:10096F00A1804F8070803A020A1689828A83ECFA3E
:10097F00E493F5F0A3C8C582C8CCC583CCE493A398
:10098F00C8C582C8CCC583CCB5F070606E80E189D4
:10099F00828A83E493F5F0A3E208B5F05E605C8091
:1009AF00F289828A83E0F5F0A3E608B5F04D604B3B
:1009BF0080F389828A83E0F5F0A3E208B5F03C600A
:1009CF003A80F389828A83E493F5F0A3E608B5F0C1
:1009DF002A602880F2805389828A83ECFAE493F5A7
:1009EF00F0A3C8C582C8CCC583CCE0A3C8C582C854
:1009FF00CCC583CCB5F004600280E27FFFB5F00276
:100A0F000F2240027F012289828A83ECFAE0F5F0FF
:100A1F00A3C8C582C8CCC583CCE0A3C8C582C8CC47
:100A2F00C583CCB5F0D560D380E389828A83ECFA95
:100A3F00E0F5F0A3C8C582C8CCC583CCE493A3C8A6
:100A4F00C582C8CCC583CCB5F0B160AF80E288F069
:100A5F00ED2402B4040050A3F582EB2402B4040089
:0B0A6F005099232345822390095873FF
:100D2C00020EA5E493A3F8E493A34003F68001F22A
:100D3C0008DFF48029E493A3F85407240CC8C333C8
:100D4C00C4540F4420C8834004F456800146F6DF97
:100D5C00E4800B0102040810204080900DACE47E6E
:100D6C00019360BCA3FF543F30E509541FFEE4938C
:100D7C00A360010ECF54C025E060A840B8E493A353
:100D8C00FAE493A3F8E493A3C8C582C8CAC583CA7E
:100D9C00F0A3C8C582C8CAC583CADFE9DEE780BE36
:010E2B0000C6
:00000001FF
