:0709FC0012097FD2AF80FE5B
:0908C300034E173B1D0251000019
:1009A8005389F0438901758AD5758C97C28DD28C8D
:0309B800D2A9229F
:03000B0002088C5C
:10088C00C0E0C0D00552E552700205516464455178
:10089C0070200550F551F552E550B43C15054F75D7
:1008AC005000754F3C054E754F00E54EB41803755E
:0708BC004E00D0D0D0E03265
:0909F300000000000000000022D9
:100994007F381209BB7F0C1209BB7F061209BB7F8B
:0409A400010209BB88
:10096A007580FFD2A6C2A5D2A7AF801209F3C2A78B
:04097A00EF20E7F390
:01097E002256
:1009BB00AE0712096AC2A6C2A58E801209F3D2A78E
:0309CB00C2A7229E
:1009CE00AE0712096AD2A6C2A58E801209F3D2A76B
:0309DE00C2A7228B
:1009E100ED7004AC078004EF2440FCEC4480FF026E
:0209F10009BB40
:100929008B538A5489551209E1AB53AA54A955121C
:10093900095160130555E5557002055414F912095A
:0809490051FF1209CE80E222E9
:1008CC00202826506C6561736520696E70757420E4
:1008DC0070617373776F7264210000000000000078
:0B08EC00000000000000000000000001
:10097F00438780759850438E04759C30438E014396
:05098F008E10D2AC2225
:030023000208F8D8
:0B08F800C0E0C0D075D000C000C007F9
:10090300E4FFC29974262FF8E6F5993099FDC29950
:0D0913000F74262FF8E670EC859908C29845
:09092000D007D000D0D0D0E032A5
:03000000020800F3
:0C080000787FE4F6D8FD758155020847AA
:10095100BB010689828A83E0225002E722BBFE02A4
:09096100E32289828A83E49322D7
:10080C000209FCE493A3F8E493A34003F68001F2FD
:10081C0008DFF48029E493A3F85407240CC8C333ED
:10082C00C4540F4420C8834004F456800146F6DFBC
:10083C00E4800B01020408102040809008C3E47E81
:10084C00019360BCA3FF543F30E509541FFEE493B1
:10085C00A360010ECF54C025E060A840B8E493A378
:10086C00FAE493A3F8E493A3C8C582C8CAC583CAA3
:10087C00F0A3C8C582C8CAC583CADFE9DEE780BE5B
:0108F7000000
:00000001FF
