:100F010057616974696E672E2E2E00506C6561738E
:100F11006520696E7075742070617373776F726488
:040F2100210D0A0094
:100E2200120F50120F65120F79D2AFC299D288D227
:100E3200A87BFF7A0F7901E4FDFF120E8B7BFF7A0C
:100E42000F790C120E5F3001FD751941120BE4305F
:0D0E52000002B2977F2C7E01120FD880EFB6
:040FEB00410042007F
:100D42000308173B1D0316173B28090D000000007E
:090D52000000000000020B00008B
:100F79005389F0438901758AD5758C97C28DD28CB6
:030F8900D2A922C8
:100CDE00120822FF75F00A1208002430F50DEF7588
:100CEE00F00A120800AFF0EF2430F50E750F2D90BC
:100CFE00000112083BFF75F00A1208002430F510AF
:100D0E00EF75F00A120800AFF0EF2430F5117512EE
:100D1E002D90000212083BFF75F00A1208002430D5
:100D2E00F513EF75F00A120800AFF0EF2430F5144A
:040D3E00E4F51522A1
:100EB3007F01120F8C7BFF7A0F79EBE4FDFF120E9B
:100EC3008B7B007A007908120CDE7B007A00790DA7
:070ED3007D01E4FF020E8B1C
:100EDA007F01120F8C7BFF7A0F79EDE4FDFF120E72
:100EEA008B7B007A007916120CDE7B007A00790D72
:070EFA007D01E4FF020E8BF5
:03000B00020A25C1
:100A2500C0E0C0F0C083C082C0D075D000C000C097
:100A350001C002C003C004C005C006C007050CE51F
:100A45000C7002050B758AD5758C97D28CE50C64F4
:100A550064450B7020050AF50BF50CE50AB43C1549
:100A65000509750A0075093C0508750900E508B40E
:100A75001803750800E508B5160CE509B51707E56F
:100A85000AB51802D200E50C640A450B7008E51991
:100A9500B44103120EB3E50C640A450B7008E51961
:100AA500B44203120EDAD007D006D005D004D00325
:100AB500D002D001D000D0D0D082D083D0F0D0E009
:010AC50032FE
:090FE200000000000000000022E4
:100F65007F38120F8C7F0C120F8C7F06120F8C7F2F
:040F750001020F8CDA
:100F3B007580FFC2A6D2A5D2A7AF80120FE2C2A7BF
:040F4B00EF20E7F3B9
:010F4F00227F
:100F8C00AE07120F3BC2A6C2A58E80120FE2D2A7EB
:030F9C00C2A722C7
:100F9F00AE07120F3BD2A6C2A58E80120FE2D2A7C8
:030FAF00C2A722B4
:100FB200ED7004AC078004EF2440FCEC4480FF0297
:020FC2000F8C92
:100E8B008B778A788979120FB2AB77AA78A9791206
:100E9B00082260130579E5797002057814F91208B8
:080EAB0022FF120F9F80E222DA
:100D9A003132333435360057656C636F6D652074B4
:100DAA006F20796F75210D0A005468652070617390
:100DBA0073776F7264206973206572726F72212073
:100DCA00506C6561736520696E7075742061676126
:060DDA00696E210D0A0004
:100D5B0020283F506C6561736520696E7075742037
:100D6B0070617373776F72642100000000000000E4
:100D7B0000000000000000000000000668010203F4
:080D8B00040506016700C10127
:100F5000438780759850438E04759C30438E0143BF
:050F60008E10D2AC224E
:060DE0008B728A73897416
:100DE600E4FF7575867576A0E5761576AC757002A6
:100DF60015754C60183098F0C298AB72AA73A97436
:100E06008F82758300E5991208680F80DBAB72AAA2
:0C0E160073A9748F82758300E4020868E1
:100E5F008B778A788979C2ACAB77AA78A97912088F
:100E6F002260160579E5797002057814F9120822C7
:0C0E7F00F5993099FDC29980DFD2AC22B9
:03002300020C6567
:100C6500C0E0C0F0C083C082C0D075D000C000C055
:0D0C750001C002C003C004C005C006C007D6
:100C82007571007E017B007A007921120DE0E56723
:100C92007012789A7C0D7DFFFB7A007921120A0886
:100CA200AE070567EE700B7BFF7A0D79A1120E5F1E
:100CB200D201EE600C2001097BFF7A0D79B3120E8E
:010CC2005FD2
:100CC300D007D006D005D004D003D002D001D00085
:0B0CD300D0D0D082D083D0F0D0E0322F
:100FC4003F065B4F666D7D077F6F777C395E797175
:030D9300011A0042
:100F2500538EBF53890F438910758B2B758DEBC27B
:060F35008FD28ED2AB2228
:03001B00020AC610
:100AC600C0E0C083C082C0D075D000C000758B2B3B
:100AD600758DEBD28E758000E51AB40800506890CB
:100AE6000AECF8282873020B04020B08020B0E020C
:100AF6000B14020B1C020B24020B2C020B3DD29092
:100B06008002C290D291800AD290C2918004C29093
:100B1600C291D2928016D290D291C292800EC29089
:100B2600D291C2928006D290C291C292900FC4E432
:100B360093F5A0051A8010C290C291C292900FC47C
:100B4600E493F5A0751A00D000D0D0D082D083D01F
:020B5600E0328B
:030D9600011B003E
:040FD4007FA07E86F6
:0A0FD800EF1F70011E144E70F72287
:100BE40020B40EE519B4410975194230B4FD120F51
:100BF400D420B40EE519B4420975194130B4FD127C
:100C04000FD420B515E519B44210051BE51BB40437
:100C140003E4F51B30B5FD120FD420B63BE519648F
:100C2400427035E51B24FE601314601C24027022FC
:100C34000516E516B4191BE4F51680160517E51715
:100C4400B43D0FE4F517800A0518E516B43D03E436
:100C5400F51830B6FD120FD420B705300002C200DB
:010C6400226D
:03000000020B5898
:0C0B5800787FE4F6D8FD758179020B9FD0
:10080000C2D530F707B2D563F0FF05F030E70CB280
:10081000D5F4048463F0FF05F080018430D502F440
:020820000422B0
:10082200BB010689828A83E0225002E722BBFE02D4
:09083200E32289828A83E4932207
:10083B00BB010CE58229F582E5833AF583E0225072
:10084B0006E92582F8E622BBFE06E92582F8E222BC
:0D085B00E58229F582E5833AF583E49322D6
:10086800F8BB010DE58229F582E5833AF583E8F0C6
:10087800225006E92582C8F622BBFE05E92582C872
:02088800F2225A
:10088A00E3F5F009E208B5F06D606B80F3E3F5F08B
:10089A0009E608B5F060605E80F387F009E608B5FE
:1008AA00F054605280F487F009E208B5F0486046D7
:1008BA0080F488828C8387F009E0A3B5F03860362B
:1008CA0080F488828C8387F009E493A3B5F02760CB
:1008DA002580F388828C83E3F5F009E0A3B5F0164E
:1008EA00601480F388828C83E3F5F009E493A3B55E
:1008FA00F004600280F20209B5808580E7808E806C
:10090A00D2803C8015806C807E809B80B5808B80F5
:10091A00A1804F8070803A0209C189828A83ECFAE9
:10092A00E493F5F0A3C8C582C8CCC583CCE493A3ED
:10093A00C8C582C8CCC583CCB5F070606E80E18929
:10094A00828A83E493F5F0A3E208B5F05E605C80E6
:10095A00F289828A83E0F5F0A3E608B5F04D604B90
:10096A0080F389828A83E0F5F0A3E208B5F03C605F
:10097A003A80F389828A83E493F5F0A3E608B5F016
:10098A002A602880F2805389828A83ECFAE493F5FC
:10099A00F0A3C8C582C8CCC583CCE0A3C8C582C8A9
:1009AA00CCC583CCB5F004600280E27FFFB5F002CB
:1009BA000F2240027F012289828A83ECFAE0F5F055
:1009CA00A3C8C582C8CCC583CCE0A3C8C582C8CC9D
:1009DA00C583CCB5F0D560D380E389828A83ECFAEB
:1009EA00E0F5F0A3C8C582C8CCC583CCE493A3C8FC
:1009FA00C582C8CCC583CCB5F0B160AF80E288F0BF
:100A0A00ED2402B4040050A3F582EB2402B40400DE
:0B0A1A005099232345822390090373A9
:100B6400020E22E493A3F8E493A34003F68001F277
:100B740008DFF48029E493A3F85407240CC8C33392
:100B8400C4540F4420C8834004F456800146F6DF61
:100B9400E4800B0102040810204080900D42E47EA2
:100BA400019360BCA3FF543F30E509541FFEE49356
:100BB400A360010ECF54C025E060A840B8E493A31D
:100BC400FAE493A3F8E493A3C8C582C8CAC583CA48
:100BD400F0A3C8C582C8CAC583CADFE9DEE780BE00
:010D99000059
:00000001FF
