:10132A0057616974696E672E2E2E00506C65617361
:10133A006520696E7075742070617373776F72645B
:04134A00210D0A0067
:101045001213C81213DD1213F112139DD2AFC299F8
:10105500D288D2A87BFF7A13792AE4FDFF12130206
:101065007BFF7A1379351212D63000FD757A41125D
:101075000D94300202B2977F2C7E01121460AE19D6
:10108500AF1A7C037DE81209FBD3EF951DEE9400A2
:101095005009C3EF951EEE94005006D201C2B080F0
:0710A500CEC201D2B080C8E9
:10143C00410056313A00420056483A00564C3A00A8
:100F4C000308173B1D0316173B28090D0000000072
:100F5C000000000000510000000000000000000034
:0D0F6C00000000000000000000020B00006B
:1013F1005389F0438901758AD5758C97C28DD28C3A
:03140100D2A9224B
:1010AC00120981FF75F00A12095F2430F50DEF75F6
:1010BC00F00A12095FAFF0EF2430F50E750F2D908A
:1010CC00000112099AFF75F00A12095F2430F5101D
:1010DC00EF75F00A12095FAFF0EF2430F5117512BD
:1010EC002D90000212099AFF75F00A12095F243044
:1010FC00F513EF75F00A12095FAFF0EF2430F51419
:04110C00E4F51522CF
:1011C0007F011214047BFF7A14793CE4FDFF1213B3
:1011D000027B007A0079081210AC7B007A00790D4E
:1011E000E4FD7F04121302AF1AAE191211697BFFDE
:1011F0007A14793E7D01E4FF1213027B017A0079B3
:08120000117D017F03021302BE
:101110007F011214047BFF7A147942E4FDFF12135D
:10112000027B007A0079161210AC7B007A00790DF0
:10113000E4FD7F041213027BFF7A1479447D01E4FD
:10114000FF121302E51D2430FB7D017F031214738F
:101150007BFF7A1479487D017F08121302E51E2473
:0911600030FB7D017F0B021473CA
:100E3300E4FF74112FF582E43400F583E0FE7400BF
:100E43002FF582E43400F583EEF00FBF04E4900045
:100E530004742BF0E50875F00A12095F2430900042
:100E630005F0E50875F00A12095FAFF0EF24309042
:100E73000006F0E50975F00A12095F2430900007B7
:100E8300F0E50975F00A12095FAFF0EF2430900026
:100E930008F0E50A75F00A12095F2430900009F0A2
:100EA300E50A75F00A12095FAFF0EF243090000AEB
:0C0EB300F0A3740DF0A3740AF0E4A3F0A7
:010EBF002210
:03000B00020CD70D
:100CD700C0E0C0F0C083C082C0D075D000C000C0E3
:100CE70001C002C003C004C005C006C007050CE56B
:100CF7000C7002050B758AD5758C97D28CE50C6440
:100D070064450B7020050AF50BF50CE50AB43C1594
:100D17000509750A0075093C0508750900E508B459
:100D27001803750800E508B5160CE509B51707E5BA
:100D37000AB51802D202E50C640A450B7008E57A79
:100D4700B441031211C0E50C640A450B7008E57A3B
:100D5700B44203121110E50C645F450B70143001A7
:100D67001130000E120E33C2997B017A00790012FE
:100D770012D6D007D006D005D004D003D002D001B8
:0D0D8700D000D0D0D082D083D0F0D0E032A8
:090F790046001100000000000018
:09146A0000000000000000002257
:1013DD007F381214047F0C1214047F061214047F3C
:0413ED0001021404E1
:1013B3007580FFC2A6D2A5D2A7AF8012146AC2A7B6
:0413C300EF20E7F33D
:0113C7002203
:10140400AE071213B3C2A6C2A58E8012146AD2A765
:03141400C2A7224A
:10141700AE071213B3D2A6C2A58E8012146AD2A742
:03142700C2A72237
:10142A00ED7004AC078004EF2440FCEC4480FF021A
:02143A00140498
:101302008B778A78897912142AAB77AA78A979120D
:10131200098160130579E5797002057814F91209DB
:0813220081FF12141780E22282
:0814730012142AAF0302141742
:04116900AB07AA0620
:10116D00E4F56E7C037DE81209FBEF24309000114D
:10117D00F0A3742EF07C037DE8AF03AE021209FBE1
:10118D007E007F64CFCDCFCECCCE1209FBEF2430C5
:10119D00A3F0AE02AF037C007D641209FB7E007FDD
:1011AD000ACFCDCFCECCCE1209FBEF2430A3F0E485
:0211BD00A3F09D
:0111BF00220D
:101208003132333435360057656C636F6D65207441
:101218006F20796F75210D0A00546865207061731D
:1012280073776F7264206973206572726F72212000
:10123800506C6561736520696E70757420616761B3
:06124800696E210D0A0091
:100F820020283F506C6561736520696E707574200E
:100F920070617373776F72642100000000000000BB
:100FA20000000000000000000000000668010203CB
:0A0FB200040506016700C100C1013B
:1013C800438780759850438E04759C30438E014343
:0513D8008E10D2AC22D2
:061294008B728A7389745D
:10129A00E4FF7575867576A0E5761576AC757002ED
:1012AA0015754C60183098F0C298AB72AA73A9747D
:1012BA008F82758300E5991209C70F80DBAB72AA8A
:0C12CA0073A9748F82758300E40209C7C9
:1012D6008B778A788979C2ACAB77AA78A979120913
:1012E6008160160579E5797002057814F91209818D
:0C12F600F5993099FDC29980DFD2AC223E
:03002300020FCCFD
:100FCC00C0E0C0F0C083C082C0D075D000C000C0EB
:0D0FDC0001C002C003C004C005C006C0076C
:100FE9007571007E017B007A007921121294E56700
:100FF900701278087C127DFFFB7A007921120BDCD4
:10100900AE070567EE700B7BFF7A12790F1212D6C5
:10101900D200EE600C2000097BFF7A1279211212AE
:01102900D6F0
:10102A00D007D006D005D004D003D002D001D0001A
:0B103A00D0D0D082D083D0F0D0E032C4
:10144C003F065B4F666D7D077F6F777C395E7971E8
:060FBC00011C00011B00F6
:10139D00538EBF53890F438910758B2B758DEBC2FF
:0613AD008FD28ED2AB22AC
:100BF900E51BB4322D7F941213848E198F1A7C0051
:100C09007D051209E9AC06AD07E41208A57B6F7AE8
:100C190012798378401208031208DE8E198F1AE4BC
:100C2900F51BE4F5A0E51C14602814604D146079E7
:100C390024036003020CD6D290D291D292AE19AF9E
:100C49001A7C007D0A1209FB744C2DF58274143C40
:100C5900804EC290D291D292AE19AF1A7C007D64B7
:100C69001209FB7E007F0ACFCDCFCECCCE1209FB75
:100C7900744C2FF58274143E8026D290C291D29280
:100C8900AE19AF1A7C037DE81209FB7E007F64CFA1
:100C9900CDCFCECCCE1209FB744C2FF58274143E05
:100CA900F583E493F5A0051C22C290C291D292AEBD
:100CB90019AF1A7C037DE81209FB744C2FF5827475
:0E0CC900143EF583E4934480F5A0E4F51C226C
:03001B0002124E80
:10124E00C0E0C0F0C083C082C0D075D000C000C066
:10125E0001C002C003C004C005C006C007758B2BB9
:10126E00758DEB758000120BF9051BD007D006D0DB
:10127E0005D004D003D002D001D000D0D0D082D07F
:06128E0083D0F0D0E03235
:090FC200011F00011D06011E04BF
:04145C007FA07E8669
:0A146000EF1F70011E144E70F722FA
:100D940020B40EE57AB44109757A4230B4FD1214D8
:100DA4005C20B40EE57AB44209757A4130B4FD1280
:100DB400145C20B515E57AB44210051FE51FB4068E
:100DC40003E4F51F30B5FD12145C20B659E57A64CE
:100DD400427053E51F24FE601914602214602B1422
:100DE40060342404703A0516E51664197032F51659
:100DF400802E0517E517643C7026F5178022051828
:100E0400E518B43C1BE4F5188016051DE51DB40A6D
:100E14000FE4F51D800A051EE51EB40A03E4F51E61
:0F0E240030B6FD12145C20B705300202C2022264
:10134E00C296E4FEEFC4131313540124FF9294EFDC
:0B135E0025E0FFC296D2960EBE08E903
:011369002261
:10136A00E4FFFEFDEF25E0FFEE33FED296C296A221
:09137A0093E43342070DBD0CEBB6
:011383002247
:10138400C296C29512134E7F06DFFED2960000C2AB
:0813940096000012136AD295C5
:01139C00222E
:10080000020954EC5D046005E85904700302094ACA
:10081000120915580460F6EC4860F2EC7004FDFE15
:10082000FF22C860DB2481C85009C39860025006CB
:100830000209519850CAF582E9294B4A7005AB82EA
:1008400002094075F0007C1A7880C3EF9BEE9AEDA8
:1008500099400DC3EF9BFFEE9AFEED99FDE842F043
:10086000DC23ACF0D0E0FFD0E0FED0E0FDAB822096
:10087000E7101BEB60BAEC2CFCEF33FFEE33FEED20
:1008800033FD02092CE803F830E705C0F075F000ED
:10089000EF2FFFEE33FEED33FD40B830E7C280AA04
:1008A00075F020800E75F010800575F0087D007ED3
:1008B000007F003392D530D503120A50EC3340103C
:1008C000EF33FFEE33FEED33FDEC33FCD5F0ED22DC
:0E08D000E5F0247EA2D513CC92E7CDCEFF2218
:1008DE00EDD2E7CD33EC3392D524814006E4FFFE12
:1008EE00FDFC22FCE4CFCECDCC24E0501174FF8071
:1008FE00EDC3CC13CCCD13CDCE13CECF13CF04700E
:07090E00F030D5DE020A50B3
:10091500E9D2E7C933E833F892D5EDD2E7CD33EC28
:0709250033FC5002B2D522A1
:10092C00EC30E7100FBF000C0EBE00080DBD00042C
:10093C000BEB6014A2D5EB13FCED92E7FD2274FFD8
:10094C00FCFDFEFF22E480F8A2D574FF13FC7D8031
:03095C00E480EF45
:03000000020EC02D
:0C0EC000787FE4F6D8FD75817A020F07F8
:10095F00C2D530F707B2D563F0FF05F030E70CB220
:10096F00D5F4048463F0FF05F080018430D502F4E0
:02097F00042250
:10098100BB010689828A83E0225002E722BBFE0274
:09099100E32289828A83E49322A7
:10099A00BB010CE58229F582E5833AF583E0225012
:1009AA0006E92582F8E622BBFE06E92582F8E2225C
:0D09BA00E58229F582E5833AF583E4932276
:1009C700F8BB010DE58229F582E5833AF583E8F066
:1009D700225006E92582C8F622BBFE05E92582C812
:0209E700F222FA
:1009E900EF8DF0A4A8F0CF8CF0A428CE8DF0A42E22
:0209F900FE22DC
:1009FB00BC000BBE0029EF8DF084FFADF022E4CCE0
:100A0B00F875F008EF2FFFEE33FEEC33FCEE9DECA8
:100A1B00984005FCEE9DFE0FD5F0E9E4CEFD22EDEE
:100A2B00F8F5F0EE8420D21CFEADF075F008EF2F38
:100A3B00FFED33FD4007985006D5F0F222C398FD29
:050A4B000FD5F0EA22C6
:0E0A5000C3E49FFFE49EFEE49DFDE49CFC22B7
:100A5E00E3F5F009E208B5F06D606B80F3E3F5F0B5
:100A6E0009E608B5F060605E80F387F009E608B528
:100A7E00F054605280F487F009E208B5F048604601
:100A8E0080F488828C8387F009E0A3B5F038603655
:100A9E0080F488828C8387F009E493A3B5F02760F5
:100AAE002580F388828C83E3F5F009E0A3B5F01678
:100ABE00601480F388828C83E3F5F009E493A3B588
:100ACE00F004600280F2020B89808580E7808E80C0
:100ADE00D2803C8015806C807E809B80B5808B8020
:100AEE00A1804F8070803A020B9589828A83ECFA3E
:100AFE00E493F5F0A3C8C582C8CCC583CCE493A318
:100B0E00C8C582C8CCC583CCB5F070606E80E18953
:100B1E00828A83E493F5F0A3E208B5F05E605C8010
:100B2E00F289828A83E0F5F0A3E608B5F04D604BBA
:100B3E0080F389828A83E0F5F0A3E208B5F03C6089
:100B4E003A80F389828A83E493F5F0A3E608B5F040
:100B5E002A602880F2805389828A83ECFAE493F526
:100B6E00F0A3C8C582C8CCC583CCE0A3C8C582C8D3
:100B7E00CCC583CCB5F004600280E27FFFB5F002F5
:100B8E000F2240027F012289828A83ECFAE0F5F07F
:100B9E00A3C8C582C8CCC583CCE0A3C8C582C8CCC7
:100BAE00C583CCB5F0D560D380E389828A83ECFA15
:100BBE00E0F5F0A3C8C582C8CCC583CCE493A3C826
:100BCE00C582C8CCC583CCB5F0B160AF80E288F0E9
:100BDE00ED2402B4040050A3F582EB2402B4040009
:0B0BEE0050992323458223900AD773FF
:100ECC00021045E493A3F8E493A34003F68001F2E7
:100EDC0008DFF48029E493A3F85407240CC8C33327
:100EEC00C4540F4420C8834004F456800146F6DFF6
:100EFC00E4800B0102040810204080900F4CE47E2B
:100F0C00019360BCA3FF543F30E509541FFEE493EA
:100F1C00A360010ECF54C025E060A840B8E493A3B1
:100F2C00FAE493A3F8E493A3C8C582C8CAC583CADC
:100F3C00F0A3C8C582C8CAC583CADFE9DEE780BE94
:010FCB000025
:00000001FF
