:090AF600120A72D2AFC29980FE0F
:09098C000355173B1D0258000041
:100A9B005389F0438901758AD5758C97C28DD28C99
:030AAB00D2A922AB
:03000B000209CF18
:1009CF00C0E0C0D00559E559700205586464455818
:1009DF0070200557F558F559E557B43C1505567570
:1009EF00570075563C0555755600E555B4180375F7
:0709FF005500D0D0D0E0321A
:090AFF00000000000000000022CC
:100A87007F38120AAE7F0C120AAE7F06120AAE7FBB
:040A970001020AAEA0
:100A5D007580FFD2A6C2A5D2A7AF80120AFFC2A78A
:040A6D00EF20E7F39C
:010A71002262
:100AAE00AE07120A5DC2A6C2A58E80120AFFD2A799
:030ABE00C2A722AA
:100AC100AE07120A5DD2A6C2A58E80120AFFD2A776
:030AD100C2A72297
:100AD400ED7004AC078004EF2440FCEC4480FF027A
:020AE4000AAE58
:100A06008B5A8A5B895C120AD4AB5AAA5BA95C1220
:100A16000A2E6013055CE55C7002055B14F9120A88
:080A26002EFF120AC180E2223A
:10099500202826506C6561736520696E707574201A
:1009A50070617373776F72642100000000000000AE
:1009B5000000000000000000000000064F010203D7
:0609C500040506014E00CE
:100A7200438780759850438E04759C30438E0143A2
:050A82008E10D2AC2231
:0300230002091CB3
:0B091C00C0E0C0D075D000C000C007D4
:10092700E4FFE54E702074262FF8E6F5993099FD1F
:10093700C2990F74262FF8E670EC75990A3099FD65
:10094700C2997F00054EE54EB4011774082FF8A62B
:1009570099C2980FE59970F374082FF876007F0015
:10096700054EE54E6402701474082FF8E6F59930C9
:0C09770099FDC2990F74082FF8E670EC8F
:09098300D007D000D0D0D0E03242
:100AE6003F065B4F666D7D077F6F777C395E797158
:0309CB00015D00CB
:100A4700538EBF53890F438910758B2B758DEBC25E
:060A57008FD28ED2AB220B
:03001B00020800D8
:10080000C0E0C083C082C0D075D000C000758B2B03
:10081000758DEB758000E55DB40800506890082484
:10082000F828287302083C02084002084602084CD7
:1008300002085402085C020864020875D2A2800211
:10084000C2A2D2A3800AD2A2C2A38004C2A2C2A31F
:10085000D2A48016D2A2D2A3C2A4800EC2A2D2A3D6
:10086000C2A48006D2A2C2A3C2A4900AE6E493F571
:1008700080055D8010C2A2C2A3C2A4900AE6E493E0
:10088000F580755D00D000D0D0D082D083D0E0322A
:0300000002089063
:0C089000787FE4F6D8FD75815E0208D781
:100A2E00BB010689828A83E0225002E722BBFE02C6
:090A3E00E32289828A83E49322F9
:10089C00020AF6E493A3F8E493A34003F68001F272
:1008AC0008DFF48029E493A3F85407240CC8C3335D
:1008BC00C4540F4420C8834004F456800146F6DF2C
:1008CC00E4800B010204081020408090098CE47E27
:1008DC00019360BCA3FF543F30E509541FFEE49321
:1008EC00A360010ECF54C025E060A840B8E493A3E8
:1008FC00FAE493A3F8E493A3C8C582C8CAC583CA13
:10090C00F0A3C8C582C8CAC583CADFE9DEE780BECA
:0109CE000028
:00000001FF
