:100CE20057616974696E672E2E2E00506C656173B0
:100CF2006520696E7075742070617373776F7264AA
:040D0200210D0A00B5
:100CBE00120D31120D46120D5AD2AFC2997BFF7A28
:100CCE000C79E2E4FDFF120C6E7BFF7A0C79ED12CB
:040CDE000C9680FEF2
:090BA6000311173B1D02140000AD
:100D5A005389F0438901758AD5758C97C28DD28CD7
:030D6A00D2A922E9
:03000B00020C2DB7
:100C2D00C0E0C0D00515E51570020514758AD5759F
:100C3D008C97D28CE5156464451470200513F5145A
:100C4D00F515E513B43C15051275130075123C0529
:100C5D0011751200E511B41803751100D0D0D0E054
:010C6D003254
:090DB50000000000000000002213
:100D46007F38120D6D7F0C120D6D7F06120D6D7FB3
:040D560001020D6D1C
:100D1C007580FFC2A6D2A5D2A7AF80120DB5C2A70F
:040D2C00EF20E7F3DA
:010D300022A0
:100D6D00AE07120D1CC2A6C2A58E80120DB5D2A75C
:030D7D00C2A722E8
:100D8000AE07120D1CD2A6C2A58E80120DB5D2A739
:030D9000C2A722D5
:100D9300ED7004AC078004EF2440FCEC4480FF02B8
:020DA3000D6DD4
:100C6E008B0E8A0F8910120D93AB0EAA0FA91012BC
:100C7E00080060130510E5107002050F14F9120834
:080C8E0000FF120D8080E2223C
:100B5E003132333435360D0A0057656C636F6D656F
:100B6E0020746F20796F75210D0A0054686520700E
:100B7E00617373776F7264206973206572726F721E
:100B8E002120506C6561736520696E7075742061EB
:080B9E006761696E210D0A0078
:100BAF0020283F506C6561736520696E70757420E5
:100BBF0070617373776F7264210000000000000092
:100BCF0000000000000000000000000668010203A2
:080BDF00040506016700C100D6
:100D3100438780759850438E04759C30438E0143E0
:050D41008E10D2AC226F
:060BEB008B098A0A890B48
:100BF100E4FF750C03750DE8E50D150DAC0C7002E5
:100C0100150C4C60183098F0C298AB09AA0AA90BD0
:100C11008F82758300E5991208190F80DBAB09AA51
:0C0C21000AA90B8F82758300E4020819F9
:100C96008B0E8A0F8910AB0EAA0FA91012080060DE
:100CA600160510E5107002050F14F9120800F599E3
:080CB6003099FDC29980DF2294
:03002300020AF4DA
:100AF400C0E0C0F0C083C082C0D075D000C000C0C8
:0D0B040001C002C003C004C005C006C00748
:100B11007508007B007A007921120BEB785E7C0B63
:100B21007DFF7B007A0079211209B97BFFBF010BA0
:100B31007A0B7967120C96D20080077A0B797912B9
:020B41000C9610
:100B4300D007D006D005D004D003D002D001D00006
:0B0B5300D0D0D082D083D0F0D0E032B0
:100DA5003F065B4F666D7D077F6F777C395E797196
:030BE700011600F4
:100D0600538EBF53890F438910758B2B758DEBC29C
:060D16008FD28ED2AB2249
:03001B000209D601
:1009D600C0E0C083C082C0D075D000C000758B2B2C
:1009E600758DEBD28E758000E516B40800506890C0
:1009F60009FCF8282873020A14020A18020A1E02C1
:100A06000A24020A2C020A34020A3C020A4DD2A225
:100A16008002C2A2D2A3800AD2A2C2A38004C2A22A
:100A2600C2A3D2A48016D2A2D2A3C2A4800EC2A20E
:100A3600D2A3C2A48006D2A2C2A3C2A4900DA5E4EA
:100A460093F58005168010C2A2C2A3C2A4900DA57C
:100A5600E493F580751600D000D0D0D082D083D034
:020A6600E0327C
:03000000020A6889
:0C0A6800787FE4F6D8FD75816D020AAFBE
:10080000BB010689828A83E0225002E722BBFE02F6
:09081000E32289828A83E4932229
:10081900F8BB010DE58229F582E5833AF583E8F015
:10082900225006E92582C8F622BBFE05E92582C8C1
:02083900F222A9
:10083B00E3F5F009E208B5F06D606B80F3E3F5F0DA
:10084B0009E608B5F060605E80F387F009E608B54D
:10085B00F054605280F487F009E208B5F048604626
:10086B0080F488828C8387F009E0A3B5F03860367A
:10087B0080F488828C8387F009E493A3B5F027601A
:10088B002580F388828C83E3F5F009E0A3B5F0169D
:10089B00601480F388828C83E3F5F009E493A3B5AD
:1008AB00F004600280F2020966808580E7808E800A
:1008BB00D2803C8015806C807E809B80B5808B8045
:1008CB00A1804F8070803A02097289828A83ECFA88
:1008DB00E493F5F0A3C8C582C8CCC583CCE493A33D
:1008EB00C8C582C8CCC583CCB5F070606E80E18979
:1008FB00828A83E493F5F0A3E208B5F05E605C8036
:10090B00F289828A83E0F5F0A3E608B5F04D604BDF
:10091B0080F389828A83E0F5F0A3E208B5F03C60AE
:10092B003A80F389828A83E493F5F0A3E608B5F065
:10093B002A602880F2805389828A83ECFAE493F54B
:10094B00F0A3C8C582C8CCC583CCE0A3C8C582C8F8
:10095B00CCC583CCB5F004600280E27FFFB5F0021A
:10096B000F2240027F012289828A83ECFAE0F5F0A4
:10097B00A3C8C582C8CCC583CCE0A3C8C582C8CCEC
:10098B00C583CCB5F0D560D380E389828A83ECFA3A
:10099B00E0F5F0A3C8C582C8CCC583CCE493A3C84B
:1009AB00C582C8CCC583CCB5F0B160AF80E288F00E
:1009BB00ED2402B4040050A3F582EB2402B404002E
:0B09CB00509923234582239008B47349
:100A7400020CBEE493A3F8E493A34003F68001F2CE
:100A840008DFF48029E493A3F85407240CC8C33383
:100A9400C4540F4420C8834004F456800146F6DF52
:100AA400E4800B0102040810204080900BA6E47E31
:100AB400019360BCA3FF543F30E509541FFEE49347
:100AC400A360010ECF54C025E060A840B8E493A30E
:100AD400FAE493A3F8E493A3C8C582C8CAC583CA39
:100AE400F0A3C8C582C8CAC583CADFE9DEE780BEF1
:010BEA00000A
:00000001FF
